{
  "_format": "hh-sol-artifact-1",
  "contractName": "WavePortal",
  "sourceName": "contracts/WavePortal.sol",
  "abi": [
    {
      "inputs": [],
      "stateMutability": "payable",
      "type": "constructor"
    },
    {
      "anonymous": false,
      "inputs": [
        {
          "indexed": true,
          "internalType": "address",
          "name": "from",
          "type": "address"
        },
        {
          "indexed": false,
          "internalType": "uint256",
          "name": "timestamp",
          "type": "uint256"
        },
        {
          "indexed": false,
          "internalType": "string",
          "name": "message",
          "type": "string"
        }
      ],
      "name": "NewWave",
      "type": "event"
    },
    {
      "inputs": [],
      "name": "getAllWaves",
      "outputs": [
        {
          "components": [
            {
              "internalType": "address",
              "name": "waver",
              "type": "address"
            },
            {
              "internalType": "string",
              "name": "message",
              "type": "string"
            },
            {
              "internalType": "uint256",
              "name": "timestamp",
              "type": "uint256"
            }
          ],
          "internalType": "struct WavePortal.Wave[]",
          "name": "",
          "type": "tuple[]"
        }
      ],
      "stateMutability": "view",
      "type": "function"
    },
    {
      "inputs": [],
      "name": "getTotalWaves",
      "outputs": [
        {
          "internalType": "uint256",
          "name": "",
          "type": "uint256"
        }
      ],
      "stateMutability": "view",
      "type": "function"
    },
    {
      "inputs": [
        {
          "internalType": "address",
          "name": "",
          "type": "address"
        }
      ],
      "name": "lastWavedAt",
      "outputs": [
        {
          "internalType": "uint256",
          "name": "",
          "type": "uint256"
        }
      ],
      "stateMutability": "view",
      "type": "function"
    },
    {
      "inputs": [
        {
          "internalType": "string",
          "name": "_message",
          "type": "string"
        }
      ],
      "name": "wave",
      "outputs": [],
      "stateMutability": "nonpayable",
      "type": "function"
    }
  ],
  "bytecode": "0x60806040526200004f6040518060400160405280601781526020017f4c65742773207072696e7420736f6d65206d6f6e657921000000000000000000815250620000c560201b620006891760201c565b606442446200005f9190620002fd565b6200006b91906200039a565b600181905550620000bf6040518060400160405280600b81526020017f52616e646f6d20736565640000000000000000000000000000000000000000008152506001546200016860201b620007221760201c565b62000441565b6200016581604051602401620000dc919062000289565b6040516020818303038152906040527f41304fac000000000000000000000000000000000000000000000000000000007bffffffffffffffffffffffffffffffffffffffffffffffffffffffff19166020820180517bffffffffffffffffffffffffffffffffffffffffffffffffffffffff83818316178352505050506200020e60201b60201c565b50565b6200020a828260405160240162000181929190620002ad565b6040516020818303038152906040527f9710a9d0000000000000000000000000000000000000000000000000000000007bffffffffffffffffffffffffffffffffffffffffffffffffffffffff19166020820180517bffffffffffffffffffffffffffffffffffffffffffffffffffffffff83818316178352505050506200020e60201b60201c565b5050565b60008151905060006a636f6e736f6c652e6c6f679050602083016000808483855afa5050505050565b60006200024482620002e1565b620002508185620002ec565b93506200026281856020860162000364565b6200026d8162000430565b840191505092915050565b62000283816200035a565b82525050565b60006020820190508181036000830152620002a5818462000237565b905092915050565b60006040820190508181036000830152620002c9818562000237565b9050620002da602083018462000278565b9392505050565b600081519050919050565b600082825260208201905092915050565b60006200030a826200035a565b915062000317836200035a565b9250827fffffffffffffffffffffffffffffffffffffffffffffffffffffffffffffffff038211156200034f576200034e620003d2565b5b828201905092915050565b6000819050919050565b60005b838110156200038457808201518184015260208101905062000367565b8381111562000394576000848401525b50505050565b6000620003a7826200035a565b9150620003b4836200035a565b925082620003c757620003c662000401565b5b828206905092915050565b7f4e487b7100000000000000000000000000000000000000000000000000000000600052601160045260246000fd5b7f4e487b7100000000000000000000000000000000000000000000000000000000600052601260045260246000fd5b6000601f19601f8301169050919050565b6111af80620004516000396000f3fe608060405234801561001057600080fd5b506004361061004c5760003560e01c8063449d46c0146100515780639a2cdc081461006d578063a42a46631461008b578063bd43a908146100bb575b600080fd5b61006b600480360381019061006691906109cf565b6100d9565b005b6100756104d5565b6040516100829190610d51565b60405180910390f35b6100a560048036038101906100a091906109a6565b610520565b6040516100b29190610d51565b60405180910390f35b6100c3610538565b6040516100d09190610c38565b60405180910390f35b42610384600360003373ffffffffffffffffffffffffffffffffffffffff1673ffffffffffffffffffffffffffffffffffffffff168152602001908152602001600020546101279190610e63565b10610167576040517f08c379a000000000000000000000000000000000000000000000000000000000815260040161015e90610d31565b60405180910390fd5b42600360003373ffffffffffffffffffffffffffffffffffffffff1673ffffffffffffffffffffffffffffffffffffffff1681526020019081526020016000208190555060016000808282546101bd9190610e63565b925050819055506102046040518060400160405280601c81526020017f2573206861732077617665642077697468206d6573736167652025730000000081525033836107be565b600260405180606001604052803373ffffffffffffffffffffffffffffffffffffffff16815260200183815260200142815250908060018154018082558091505060019003906000526020600020906003020160009091909190915060008201518160000160006101000a81548173ffffffffffffffffffffffffffffffffffffffff021916908373ffffffffffffffffffffffffffffffffffffffff16021790555060208201518160010190805190602001906102c3929190610886565b506040820151816002015550503373ffffffffffffffffffffffffffffffffffffffff167f5f7e16dc676677766a70e9c5628aa6c54ddb8b6e5188e2ae1e1f17f1ffbea7164283604051610318929190610d6c565b60405180910390a2606460015442446103319190610e63565b61033b9190610e63565b6103459190610f9a565b60018190555061038c6040518060400160405280601781526020017f52616e646f6d206e756d6265722067656e657261746564000000000000000000815250600154610722565b603260015410156104d2576103d56040518060400160405280600a81526020017f776176657220776f6e2100000000000000000000000000000000000000000000815250610689565b6000655af3107a4000905047811115610423576040517f08c379a000000000000000000000000000000000000000000000000000000000815260040161041a90610d11565b60405180910390fd5b60003373ffffffffffffffffffffffffffffffffffffffff168260405161044990610c23565b60006040518083038185875af1925050503d8060008114610486576040519150601f19603f3d011682016040523d82523d6000602084013e61048b565b606091505b50509050806104cf576040517f08c379a00000000000000000000000000000000000000000000000000000000081526004016104c690610cf1565b60405180910390fd5b50505b50565b60006105186040518060400160405280601881526020017f57652068617665203c25643e20746f74616c2077617665730000000000000000815250600054610722565b600054905090565b60036020528060005260406000206000915090505481565b60606002805480602002602001604051908101604052809291908181526020016000905b8282101561068057838290600052602060002090600302016040518060600160405290816000820160009054906101000a900473ffffffffffffffffffffffffffffffffffffffff1673ffffffffffffffffffffffffffffffffffffffff1673ffffffffffffffffffffffffffffffffffffffff1681526020016001820180546105e590610f37565b80601f016020809104026020016040519081016040528092919081815260200182805461061190610f37565b801561065e5780601f106106335761010080835404028352916020019161065e565b820191906000526020600020905b81548152906001019060200180831161064157829003601f168201915b505050505081526020016002820154815250508152602001906001019061055c565b50505050905090565b61071f8160405160240161069d9190610c5a565b6040516020818303038152906040527f41304fac000000000000000000000000000000000000000000000000000000007bffffffffffffffffffffffffffffffffffffffffffffffffffffffff19166020820180517bffffffffffffffffffffffffffffffffffffffffffffffffffffffff838183161783525050505061085d565b50565b6107ba8282604051602401610738929190610cc1565b6040516020818303038152906040527f9710a9d0000000000000000000000000000000000000000000000000000000007bffffffffffffffffffffffffffffffffffffffffffffffffffffffff19166020820180517bffffffffffffffffffffffffffffffffffffffffffffffffffffffff838183161783525050505061085d565b5050565b6108588383836040516024016107d693929190610c7c565b6040516020818303038152906040527fe0e9ad4f000000000000000000000000000000000000000000000000000000007bffffffffffffffffffffffffffffffffffffffffffffffffffffffff19166020820180517bffffffffffffffffffffffffffffffffffffffffffffffffffffffff838183161783525050505061085d565b505050565b60008151905060006a636f6e736f6c652e6c6f679050602083016000808483855afa5050505050565b82805461089290610f37565b90600052602060002090601f0160209004810192826108b457600085556108fb565b82601f106108cd57805160ff19168380011785556108fb565b828001600101855582156108fb579182015b828111156108fa5782518255916020019190600101906108df565b5b509050610908919061090c565b5090565b5b8082111561092557600081600090555060010161090d565b5090565b600061093c61093784610dc1565b610d9c565b90508281526020810184848401111561095457600080fd5b61095f848285610ef5565b509392505050565b60008135905061097681611162565b92915050565b600082601f83011261098d57600080fd5b813561099d848260208601610929565b91505092915050565b6000602082840312156109b857600080fd5b60006109c684828501610967565b91505092915050565b6000602082840312156109e157600080fd5b600082013567ffffffffffffffff8111156109fb57600080fd5b610a078482850161097c565b91505092915050565b6000610a1c8383610bb5565b905092915050565b610a2d81610eb9565b82525050565b610a3c81610eb9565b82525050565b6000610a4d82610e02565b610a578185610e25565b935083602082028501610a6985610df2565b8060005b85811015610aa55784840389528151610a868582610a10565b9450610a9183610e18565b925060208a01995050600181019050610a6d565b50829750879550505050505092915050565b6000610ac282610e0d565b610acc8185610e41565b9350610adc818560208601610f04565b610ae581611087565b840191505092915050565b6000610afb82610e0d565b610b058185610e52565b9350610b15818560208601610f04565b610b1e81611087565b840191505092915050565b6000610b36602c83610e52565b9150610b4182611098565b604082019050919050565b6000610b59602483610e52565b9150610b64826110e7565b604082019050919050565b6000610b7c600083610e36565b9150610b8782611136565b600082019050919050565b6000610b9f600883610e52565b9150610baa82611139565b602082019050919050565b6000606083016000830151610bcd6000860182610a24565b5060208301518482036020860152610be58282610ab7565b9150506040830151610bfa6040860182610c05565b508091505092915050565b610c0e81610eeb565b82525050565b610c1d81610eeb565b82525050565b6000610c2e82610b6f565b9150819050919050565b60006020820190508181036000830152610c528184610a42565b905092915050565b60006020820190508181036000830152610c748184610af0565b905092915050565b60006060820190508181036000830152610c968186610af0565b9050610ca56020830185610a33565b8181036040830152610cb78184610af0565b9050949350505050565b60006040820190508181036000830152610cdb8185610af0565b9050610cea6020830184610c14565b9392505050565b60006020820190508181036000830152610d0a81610b29565b9050919050565b60006020820190508181036000830152610d2a81610b4c565b9050919050565b60006020820190508181036000830152610d4a81610b92565b9050919050565b6000602082019050610d666000830184610c14565b92915050565b6000604082019050610d816000830185610c14565b8181036020830152610d938184610af0565b90509392505050565b6000610da6610db7565b9050610db28282610f69565b919050565b6000604051905090565b600067ffffffffffffffff821115610ddc57610ddb611058565b5b610de582611087565b9050602081019050919050565b6000819050602082019050919050565b600081519050919050565b600081519050919050565b6000602082019050919050565b600082825260208201905092915050565b600081905092915050565b600082825260208201905092915050565b600082825260208201905092915050565b6000610e6e82610eeb565b9150610e7983610eeb565b9250827fffffffffffffffffffffffffffffffffffffffffffffffffffffffffffffffff03821115610eae57610ead610fcb565b5b828201905092915050565b6000610ec482610ecb565b9050919050565b600073ffffffffffffffffffffffffffffffffffffffff82169050919050565b6000819050919050565b82818337600083830152505050565b60005b83811015610f22578082015181840152602081019050610f07565b83811115610f31576000848401525b50505050565b60006002820490506001821680610f4f57607f821691505b60208210811415610f6357610f62611029565b5b50919050565b610f7282611087565b810181811067ffffffffffffffff82111715610f9157610f90611058565b5b80604052505050565b6000610fa582610eeb565b9150610fb083610eeb565b925082610fc057610fbf610ffa565b5b828206905092915050565b7f4e487b7100000000000000000000000000000000000000000000000000000000600052601160045260246000fd5b7f4e487b7100000000000000000000000000000000000000000000000000000000600052601260045260246000fd5b7f4e487b7100000000000000000000000000000000000000000000000000000000600052602260045260246000fd5b7f4e487b7100000000000000000000000000000000000000000000000000000000600052604160045260246000fd5b6000601f19601f8301169050919050565b7f4661696c656420746f2073656e64206d6f6e65792066726f6d20636f6e74726160008201527f637420746f2073656e6465720000000000000000000000000000000000000000602082015250565b7f496e73756666696369656e742062616c616e636520696e2057617665436f6e7460008201527f7261637400000000000000000000000000000000000000000000000000000000602082015250565b50565b7f576169742031356d000000000000000000000000000000000000000000000000600082015250565b61116b81610eb9565b811461117657600080fd5b5056fea264697066735822122009e336bb55b09bf09c59e4d6521e3380a827415a5e1a47543764f1d66dc8db3d64736f6c63430008040033",
  "linkReferences": {},
  "deployedLinkReferences": {}
}