{
  "_format": "hh-sol-artifact-1",
  "contractName": "WavePortal",
  "sourceName": "contracts/WavePortal.sol",
  "abi": [
    {
      "inputs": [],
      "stateMutability": "nonpayable",
      "type": "constructor"
    },
    {
      "inputs": [],
      "name": "getTotalWaves",
      "outputs": [
        {
          "internalType": "uint64",
          "name": "",
          "type": "uint64"
        }
      ],
      "stateMutability": "view",
      "type": "function"
    },
    {
      "inputs": [],
      "name": "wave",
      "outputs": [],
      "stateMutability": "nonpayable",
      "type": "function"
    }
  ],
  "bytecode": "0x608060405234801561001057600080fd5b506100596040518060400160405280601781526020017f4c65742773207072696e7420736f6d65206d6f6e65792100000000000000000081525061005e60201b6101681760201c565b6101e1565b6100fa81604051602401610072919061015f565b6040516020818303038152906040527f41304fac000000000000000000000000000000000000000000000000000000007bffffffffffffffffffffffffffffffffffffffffffffffffffffffff19166020820180517bffffffffffffffffffffffffffffffffffffffffffffffffffffffff83818316178352505050506100fd60201b60201c565b50565b60008151905060006a636f6e736f6c652e6c6f679050602083016000808483855afa5050505050565b600061013182610181565b61013b818561018c565b935061014b81856020860161019d565b610154816101d0565b840191505092915050565b600060208201905081810360008301526101798184610126565b905092915050565b600081519050919050565b600082825260208201905092915050565b60005b838110156101bb5780820151818401526020810190506101a0565b838111156101ca576000848401525b50505050565b6000601f19601f8301169050919050565b6105b8806101f06000396000f3fe608060405234801561001057600080fd5b50600436106100365760003560e01c80636fe15b441461003b5780639a2cdc0814610045575b600080fd5b610043610063565b005b61004d6100ef565b60405161005a919061044a565b60405180910390f35b60016000808282829054906101000a900467ffffffffffffffff166100889190610481565b92506101000a81548167ffffffffffffffff021916908367ffffffffffffffff1602179055506100ed6040518060400160405280600c81526020017f257320686173207761766564000000000000000000000000000000000000000081525033610201565b565b600061014e6040518060400160405280601881526020017f57652068617665203c25643e20746f74616c207761766573000000000000000081525060008054906101000a900467ffffffffffffffff1667ffffffffffffffff1661029d565b60008054906101000a900467ffffffffffffffff16905090565b6101fe8160405160240161017c91906103c8565b6040516020818303038152906040527f41304fac000000000000000000000000000000000000000000000000000000007bffffffffffffffffffffffffffffffffffffffffffffffffffffffff19166020820180517bffffffffffffffffffffffffffffffffffffffffffffffffffffffff8381831617835250505050610339565b50565b61029982826040516024016102179291906103ea565b6040516020818303038152906040527f319af333000000000000000000000000000000000000000000000000000000007bffffffffffffffffffffffffffffffffffffffffffffffffffffffff19166020820180517bffffffffffffffffffffffffffffffffffffffffffffffffffffffff8381831617835250505050610339565b5050565b61033582826040516024016102b392919061041a565b6040516020818303038152906040527f9710a9d0000000000000000000000000000000000000000000000000000000007bffffffffffffffffffffffffffffffffffffffffffffffffffffffff19166020820180517bffffffffffffffffffffffffffffffffffffffffffffffffffffffff8381831617835250505050610339565b5050565b60008151905060006a636f6e736f6c652e6c6f679050602083016000808483855afa5050505050565b61036b816104bf565b82525050565b600061037c82610465565b6103868185610470565b935061039681856020860161050f565b61039f81610571565b840191505092915050565b6103b3816104f1565b82525050565b6103c2816104fb565b82525050565b600060208201905081810360008301526103e28184610371565b905092915050565b600060408201905081810360008301526104048185610371565b90506104136020830184610362565b9392505050565b600060408201905081810360008301526104348185610371565b905061044360208301846103aa565b9392505050565b600060208201905061045f60008301846103b9565b92915050565b600081519050919050565b600082825260208201905092915050565b600061048c826104fb565b9150610497836104fb565b92508267ffffffffffffffff038211156104b4576104b3610542565b5b828201905092915050565b60006104ca826104d1565b9050919050565b600073ffffffffffffffffffffffffffffffffffffffff82169050919050565b6000819050919050565b600067ffffffffffffffff82169050919050565b60005b8381101561052d578082015181840152602081019050610512565b8381111561053c576000848401525b50505050565b7f4e487b7100000000000000000000000000000000000000000000000000000000600052601160045260246000fd5b6000601f19601f830116905091905056fea2646970667358221220b35bc999919115b00148ce46c9359bb5f959290e4f73932d00dfc7480ffe349464736f6c63430008040033",
  "linkReferences": {},
  "deployedLinkReferences": {}
}